:100EB6000A128A11D92F0A128A11612F031383127B
:100EC6008501031783160810881008118811081267
:100ED6000313831600308500031383120508051CCF
:100EE60005148514051585150516051E722F0512A0
:100EF600851105118510722F0313831285010313C3
:100F060083168501FC30850000000A128A1108004C
:100F16006030850000000A128A110800DA30850068
:100F260000000A128A110800F230850000000A1239
:100F36008A1108006630850000000A128A1108002E
:100F4600B630850000000A128A110800BE308500FE
:100F560000000A128A110800E030850000000A121B
:100F66008A110800FE30850000000A128A11080066
:100F7600F630850000000A128A1108000313831256
:100F86000130A0000000A00FC62F0313831201300A
:100F9600A1000000A10FCD2F031383120130A20080
:100FA6000000A20FA21DD42F000008000313831215
:100FB60085010313831685010313831671308F0091
:100FC6000A128A117F2703138312850103138316DE
:100FD60085018B27C1279127C1279727C1279D27E1
:100FE600C127A327C127A927C127AF27C127B5270F
:0A0FF600C127BB27C1270000E32F2D
:04400E00C410FF3F9C
:00000001FF
