:100E4E000A128A11DB2F0A128A112D2F0313831215
:100E5E0085010317831608108810081188110812CF
:100E6E000313831600308500031383120508051C37
:100E7E0005148514051585150516051E3E2F05123C
:100E8E008511051185103E2F03138312850103135F
:100E9E0083168501FC30850000000A128A110800B5
:100EAE0003138312850103138316850160308500B9
:100EBE0000000A128A11080003138312850103131E
:100ECE0083168501DA30850000000A128A110800A7
:100EDE00031383128501031383168501F2308500F7
:100EEE0000000A128A1108000313831285010313EE
:100EFE00831685016630850000000A128A110800EB
:100F0E00031383128501031383168501B630850002
:100F1E0000000A128A1108000313831285010313BD
:100F2E0083168501BE30850000000A128A11080062
:100F3E00031383128501031383168501E0308500A8
:100F4E0000000A128A11080003138312850103138D
:100F5E0083168501FE30850000000A128A110800F2
:100F6E00031383128501031383168501F630850062
:100F7E0000000A128A110800031383120130A00028
:100F8E000000A00FC82F031383120130A100000030
:100F9E00A10FCF2F031383120130A2000000A20F66
:100FAE00A21DD62F00000800031383128501031320
:100FBE00831685010313831671308F000030850070
:100FCE0000000A128A114B27C3275727C32763270E
:100FDE00C3276F27C3277B27C3278727C3279327BB
:100FEE00C3279F27C327AB27C327B727C3270000D5
:020FFE00E82FDA
:04400E00C410FF3F9C
:00000001FF
